:020000040800F2
:100000000000022015190008211700082717000812
:100010002D170008331700083917000800000000EA
:100020000000000000000000000000003F17000872
:100030004D170008000000005B1700086917000852
:100040006519000865190008651900086519000898
:100050006519000865190008651900086519000888
:100060006519000865190008651900086519000878
:100070006519000865190008651900086519000868
:10008000751700086519000865190008651900084A
:100090006519000865190008651900086519000848
:1000A0006519000865190008651900086519000838
:1000B0008917000865190008651900086519000806
:1000C0006519000865190008651900086519000818
:1000D0006519000865190008651900086519000808
:1000E00065190008651900086519000865190008F8
:1000F00065190008651900086519000865190008E8
:1001000065190008651900086519000865190008D7
:1001100065190008651900086519000865190008C7
:1001200065190008651900086519000865190008B7
:1001300065190008651900086519000865190008A7
:100140006519000865190008651900086519000897
:100150006519000865190008651900086519000887
:100160006519000865190008651900086519000877
:1001700065190008651900086519000800000000ED
:0801800065190008651900086B
:1001900010B5054C237833B9044B13B10448AFF3C1
:1001A00000800123237010BD040200200000000025
:1001B000D495000808B5034B1BB103490348AFF3BE
:1001C000008008BD0000000008020020D49500084F
:1001D000034613F8012B002AFBD1181A0138704787
:1001E00001F0FF01102A2BDB10F0070F08D010F8E8
:1001F000013B013A8B422DD010F0070F42B3F6D1EC
:10020000F0B441EA012141EA014122F007047FF004
:1002100000070023F0E80256083C85EA010586EA5B
:10022000010685FA47F5A3FA87F586FA47F6A5FA97
:1002300087F68EB9EED1F0BC01F0FF0102F00702A3
:1002400032B110F8013B013A83EA010313B1F8D14E
:100250000020704701387047002D06BF354603382F
:10026000073815F0010F07D1013015F4807F02BF68
:10027000013015F4C03F0130F0BC0138704700BFB9
:1002800081F0004102E000BF83F0004330B54FEA47
:1002900041044FEA430594EA050F08BF90EA020FB4
:1002A0001FBF54EA000C55EA020C7FEA645C7FEA47
:1002B000655C00F0E2804FEA5454D4EB5555B8BF6A
:1002C0006D420CDD2C4480EA020281EA030382EADB
:1002D000000083EA010180EA020281EA0303362D6D
:1002E00088BF30BD11F0004F4FEA01314FF4801C40
:1002F0004CEA113102D0404261EB410113F0004F52
:100300004FEA03334CEA133302D0524263EB430308
:1003100094EA050F00F0A780A4F10104D5F1200EA6
:100320000DDB02FA0EFC22FA05F2801841F1000101
:1003300003FA0EF2801843FA05F359410EE0A5F1D5
:1003400020050EF1200E012A03FA0EFC28BF4CF006
:10035000020C43FA05F3C01851EBE37101F00045BC
:1003600007D54FF0000EDCF1000C7EEB00006EEBC9
:100370000101B1F5801F1BD3B1F5001F0CD3490853
:100380005FEA30004FEA3C0C04F101044FEA4452AA
:1003900012F5800F80F09A80BCF1004F08BF5FEA31
:1003A000500C50F1000041EB045141EA050130BD11
:1003B0005FEA4C0C404141EB0101013C28BFB1F523
:1003C000801FE9D291F0000F04BF01460020B1FA6E
:1003D00081F308BF2033A3F10B03B3F120020CDA41
:1003E0000C3208DD02F1140CC2F10C0201FA0CF01F
:1003F00021FA02F10CE002F11402D8BFC2F1200C84
:1004000001FA02F120FA0CFCDCBF41EA0C01904039
:10041000E41AA2BF01EB0451294330BD6FEA040482
:100420001F3C1CDA0C340EDC04F11404C4F120026D
:1004300020FA04F001FA02F340EA030021FA04F37F
:1004400045EA030130BDC4F10C04C4F1200220FAD6
:1004500002F001FA04F340EA0300294630BD21FA14
:1004600004F0294630BD94F0000F83F4801306BFDA
:1004700081F480110134013D4EE77FEA645C18BFCE
:100480007FEA655C29D094EA050F08BF90EA020F65
:1004900005D054EA000C04BF1946104630BD91EA5D
:1004A000030F1EBF0021002030BD5FEA545C05D160
:1004B0004000494128BF41F0004130BD14F580049F
:1004C0003CBF01F5801130BD01F0004545F0FE4113
:1004D00041F470014FF0000030BD7FEA645C1ABF48
:1004E000194610467FEA655C1CBF0B46024650EA7F
:1004F000013406BF52EA033591EA030F41F40021AB
:1005000030BD00BF90F0000F04BF0021704730B530
:100510004FF4806404F132044FF000054FF0000105
:1005200050E700BF90F0000F04BF0021704730B5C6
:100530004FF4806404F1320410F0004548BF40429B
:100540004FF000013EE700BF42004FEAE2014FEAF0
:1005500031014FEA02701FBF12F07F4393F07F4FCB
:1005600081F06051704732F07F4208BF704793F0CE
:100570007F4F04BF41F40021704730B54FF46074E1
:1005800001F0004521F000411CE700BF50EA0102E4
:1005900008BF704730B54FF000050AE050EA01028D
:1005A00008BF704730B511F0004502D5404261EBFD
:1005B00041014FF4806404F132045FEA915C3FF43E
:1005C000D8AE4FF003025FEADC0C18BF03325FEADB
:1005D000DC0C18BF033202EBDC02C2F1200300FA8C
:1005E00003FC20FA02F001FA03FE40EA0E0021FAB1
:1005F00002F11444BDE600BF70B54FF0FF0C4CF49F
:10060000E06C1CEA11541DBF1CEA135594EA0C0F50
:1006100095EA0C0F00F0DEF82C4481EA030621EA8B
:100620004C5123EA4C5350EA013518BF52EA0335C6
:1006300041F4801143F4801338D0A0FB02CE4FF078
:100640000005E1FB02E506F00042E0FB03E54FF0A8
:100650000006E1FB03569CF0000F18BF4EF0010EA0
:10066000A4F1FF04B6F5007F64F5407404D25FEA9C
:100670004E0E6D4146EB060642EAC62141EA55514F
:100680004FEAC52040EA5E504FEACE2EB4F1FD0C91
:1006900088BFBCF5E06F1ED8BEF1004F08BF5FEA0F
:1006A000500E50F1000041EB045170BD06F00046C1
:1006B00046EA010140EA020081EA0301B4EB5C046E
:1006C000C2BFD4EB0C0541EA045170BD41F4801166
:1006D0004FF0000E013C00F3AB8014F1360FDEBF8B
:1006E000002001F0004170BDC4F10004203C35DA67
:1006F0000C341BDC04F11404C4F1200500FA05F3EA
:1007000020FA04F001FA05F240EA020001F000428A
:1007100021F0004110EBD37021FA04F642EB060100
:100720005EEA430E08BF20EAD37070BDC4F10C042A
:10073000C4F1200500FA04F320FA05F001FA04F2EE
:1007400040EA020001F0004110EBD37041F10001DA
:100750005EEA430E08BF20EAD37070BDC4F12005E5
:1007600000FA05F24EEA020E20FA04F301FA05F24D
:1007700043EA020321FA04F001F0004121FA04F2F5
:1007800020EA020000EBD3705EEA430E08BF20EAC5
:10079000D37070BD94F0000F0FD101F000464000FF
:1007A00041EB010111F4801F08BF013CF7D041EA81
:1007B000060195F0000F18BF704703F00046520085
:1007C00043EB030313F4801F08BF013DF7D043EA56
:1007D0000603704794EA0C0F0CEA135518BF95EA0C
:1007E0000C0F0CD050EA410618BF52EA4306D1D193
:1007F00081EA030101F000414FF0000070BD50EAB2
:10080000410606BF1046194652EA430619D094EA3B
:100810000C0F02D150EA013613D195EA0C0F05D125
:1008200052EA03361CBF104619460AD181EA030179
:1008300001F0004141F0FE4141F470014FF0000031
:1008400070BD41F0FE4141F4780170BD70B54FF0CC
:10085000FF0C4CF4E06C1CEA11541DBF1CEA13554C
:1008600094EA0C0F95EA0C0F00F0A7F8A4EB05042E
:1008700081EA030E52EA03354FEA013100F0888025
:100880004FEA03334FF0805545EA131343EA1263EE
:100890004FEA022245EA111545EA10654FEA0026A3
:1008A0000EF000419D4208BF964244F1FD0404F55C
:1008B000407402D25B084FEA3202B61A65EB0305B8
:1008C0005B084FEA32024FF480104FF4002CB6EB75
:1008D000020E75EB030E22BFB61A754640EA0C00F5
:1008E0005B084FEA3202B6EB020E75EB030E22BF35
:1008F000B61A754640EA5C005B084FEA3202B6EB76
:10090000020E75EB030E22BFB61A754640EA9C0034
:100910005B084FEA3202B6EB020E75EB030E22BF04
:10092000B61A754640EADC0055EA060E18D04FEAC2
:10093000051545EA16754FEA06164FEAC30343EA62
:1009400052734FEAC2025FEA1C1CC0D111F4801F2F
:100950000BD141EA00014FF000004FF0004CB6E728
:1009600011F4801F04BF01430020B4F1FD0C88BFC7
:10097000BCF5E06F3FF6AFAEB5EB030C04BFB6EBD2
:10098000020C5FEA500C50F1000041EB045170BDC5
:100990000EF0004E4EEA113114EB5C04C2BFD4EBF2
:1009A0000C0541EA045170BD41F480114FF0000E76
:1009B000013C90E645EA060E8DE60CEA135594EAF2
:1009C0000C0F08BF95EA0C0F3FF43BAF94EA0C0FF5
:1009D0000AD150EA01347FF434AF95EA0C0F7FF46A
:1009E00025AF104619462CE795EA0C0F06D152EABE
:1009F00003353FF4FDAE1046194622E750EA4106A2
:100A000018BF52EA43067FF4C5AE50EA41047FF4B2
:100A10000DAF52EA43057FF4EBAE12E74FF0FF3C17
:100A200006E000BF4FF0010C02E000BF4FF0010CE8
:100A30004DF804CD4FEA410C7FEA6C5C4FEA430C61
:100A400018BF7FEA6C5C1BD001B050EA410C0CBFB0
:100A500052EA430C91EA030F02BF90EA020F002012
:100A6000704710F1000F91EA030F58BF994208BF79
:100A700090422CBFD8176FEAE37040F00100704736
:100A80004FEA410C7FEA6C5C02D150EA013C07D18D
:100A90004FEA430C7FEA6C5CD6D152EA033CD3D0D8
:100AA0005DF8040B704700BF8446104662468C46D2
:100AB0001946634600E000BF01B5FFF7B7FF002805
:100AC00048BF10F1000F01BD4DF808EDFFF7F4FF2E
:100AD0000CBF012000205DF808FB00BF4DF808EDB9
:100AE000FFF7EAFF34BF012000205DF808FB00BFDC
:100AF0004DF808EDFFF7E0FF94BF012000205DF8FE
:100B000008FB00BF4DF808EDFFF7CEFF94BF0120B2
:100B100000205DF808FB00BF4DF808EDFFF7C4FFAB
:100B200034BF012000205DF808FB00BF4FEA410CF4
:100B30007FEA6C5C02D150EA013C0AD14FEA430CD7
:100B40007FEA6C5C02D152EA033C02D14FF0000014
:100B500070474FF0010070474FEA410212F5001252
:100B600015D211D56FF47873B3EB625212D94FEAF4
:100B7000C12343F0004343EA505311F0004F23FADE
:100B800002F018BF404270474FF00000704750EA33
:100B9000013005D111F0004008BF6FF000407047F0
:100BA0004FF00000704700BF4A0011D212F500124A
:100BB00011D20DD56FF47873B3EB62520ED44FEAB5
:100BC000C12343F0004343EA505323FA02F0704735
:100BD0004FF00000704750EA013002D14FF0FF3073
:100BE00070474FF0000070474FEA4102B2F1E04316
:100BF00024BFB3F5001CDCF1FE5C0DD901F0004C04
:100C00004FEAC0024CEA5070B2F1004F40EB830053
:100C100008BF20F00100704711F0804F21D113F17F
:100C20003872BCBF01F00040704741F480114FEAB8
:100C30005252C2F11802C2F1200C10FA0CF320FA41
:100C400002F018BF40F001004FEAC1234FEAD3235E
:100C500003FA0CFC40EA0C0023FA02F34FEA4303C8
:100C6000CCE77FEA625307D150EA01331EBF4FF051
:100C7000FE4040F44000704701F0004040F0FE406C
:100C800040F40000704700BF53B94AB9002908BFBB
:100C900000281CBF4FF0FF314FF0FF3000F0A4B927
:100CA000ADF1080C6DE904CE00F03CF8DDF804E08D
:100CB000DDE9022304B0704738B500220023044662
:100CC0000D46FFF70BFF28B920462946BDE83840FE
:100CD00000F00AB8204605F1004100F005F8404256
:100CE00061EB410138BD00BFD0B50C4B0022064678
:100CF0000F46FFF781FCFFF757FF0446FFF702FCA2
:100D0000074B0022FFF778FC02460B463046394677
:100D1000FFF7BAFAFFF748FF2146D0BD0000F03DCB
:100D20000000F0412DE9F047089D04468C46002B59
:100D300040F083808A42174647D9B2FA82F242B124
:100D4000C2F1200024FA00F09140974040EA010CE3
:100D500094404FEA1748230CBCFBF8F61FFA87FEB5
:100D600008FB16C143EA014306FB0EF1994209D97B
:100D7000FB1806F1FF3080F01981994240F216818C
:100D8000023E3B445B1AA4B2B3FBF8F008FB1033FD
:100D900044EA034400FB0EFEA64509D93C1900F1C4
:100DA000FF3380F00581A64540F2028102383C44C1
:100DB00040EA0640A4EB0E0400261DB1D4400023F7
:100DC000C5E900433146BDE8F08702B9FFDEB2FA5B
:100DD00082F2002A50D1CB1B4FEA174E1FFA87F838
:100DE0000126B3FBFEFC210C0EFB1C3341EA034140
:100DF00008FB0CF38B4207D979180CF1FF3002D2B3
:100E00008B4200F2E9808446C91AA3B2B1FBFEF01E
:100E10000EFB101143EA014408FB00F8A04507D976
:100E20003C1900F1FF3302D2A04500F2D9801846E8
:100E3000A4EB080440EA0C40BFE78B4209D9002D1F
:100E400000F0B1800026C5E9000130463146BDE81A
:100E5000F087B3FA83F6002E4AD18B4202D3824246
:100E600000F2B880841A61EB030101208C46002D4A
:100E7000A8D0C5E9004CA5E7C2F1200320FA03F68B
:100E8000974001FA02F04FEA174ED9403043030C65
:100E9000B1FBFEF61FFA87F80EFB161143EA014379
:100EA00006FB08F1994204FA02F409D9FB1806F18D
:100EB000FF3C80F08D80994240F28A80023E3B44A4
:100EC0005B1A81B2B3FBFEF00EFB103341EA034123
:100ED00000FB08F38B4207D9791800F1FF3C73D26D
:100EE0008B4271D902383944CB1A40EA064678E77A
:100EF000C6F1200C03FA06F422FA0CF31C4320FA84
:100F00000CF701FA06F34FEA144E21FA0CF11F43D5
:100F10003B0CB1FBFEF91FFA84F80EFB191143EAF2
:100F2000014109FB08FA8A4502FA06F200FA06F3C3
:100F300008D9611809F1FF3048D28A4546D9A9F18C
:100F400002092144A1EB0A01BFB2B1FBFEF00EFB86
:100F5000101147EA014700FB08F8B84507D9E7191F
:100F600000F1FF312ED2B8452CD90238274440EA8F
:100F70000940A7EB0807A0FB02894F45C646494632
:100F80001AD317D05DB1B3EB0E0267EB010707FA76
:100F90000CFCF2404CEA0202F740C5E900270026AB
:100FA0003146BDE8F0872E4628460BE70646E9E6BF
:100FB0001846FDE64345E5D2B8EB020E69EB0401A5
:100FC0000138DFE70846D2E760468DE78146B9E79A
:100FD000664675E730464AE7ACF1020C394413E740
:100FE00002383C4424E700BF704700BF80B483B0A0
:100FF00000AF78604FF06043D3F8803E03F0010308
:10100000002B13D04FF06043D3F8003E03F00103F0
:10101000002B0BD000E000BF4FF060431B68002B9B
:10102000F9D04FF060437A68D2B21A707B681846E4
:101030000C37BD465DF8047B7047000080B582B078
:1010400002AF00F091FC00F023F800F021F900F06D
:10105000FFF800F087F800F0AFF80A4802F0A6F9B0
:1010600000F0C8F900F09CF900F072F900F012FAF3
:10107000002300934FF4C873034A0021034800F093
:1010800019FEFEE7E4210020AC0E00208C1B00209E
:1010900080B594B000AF07F120033022002118463C
:1010A00002F0DEFD07F10C0300221A605A609A601C
:1010B000DA601A610023BB60284B1B6C274A43F09F
:1010C00080531364254B1B6C03F08053BB60BB68DB
:1010D00000237B60224B1B68214A43F4804313604A
:1010E0001F4B1B6803F480437B607B6801233B62DA
:1010F0004FF480337B620223BB634FF48003FB63B6
:1011000004233B6454237B640223BB640423FB64F9
:1011100007F12003184601F0B9FC0346002B01D06B
:1011200000F032FA0F23FB6002233B6100237B6156
:101130004FF4A053BB614FF4A053FB6107F10C03C4
:101140000221184601F01AFF0346002B01D000F0DF
:101150001BFA00BF5037BD4680BD00BF00380240BB
:101160000070004080B582B000AF3B4600221A609C
:101170005A600F4B0F4A1A600D4800F078FD034685
:10118000002B01D000F000FA24233B6000237B6099
:101190003B4600221946064800F078FE0346002B25
:1011A00001D000F0F1F900BF0837BD4680BD00BF97
:1011B0008C1B00200074004080B586B000AF07F1A2
:1011C000080300221A605A609A60DA603B460022E7
:1011D0001A605A601D4B4FF080421A601B4B292247
:1011E0005A601A4B00229A60184B6322DA60174B40
:1011F00000221A61154B00229A61144802F086F809
:101200000346002B01D000F0BFF94FF48053BB60C0
:1012100007F1080319460D4802F038FA0346002B7F
:1012200001D000F0B1F920233B6000237B603B46F6
:101230001946064802F05AFC0346002B01D000F084
:10124000A3F900BF1837BD4680BD00BFE4210020D0
:1012500080B582B000AF00237B600C4B1B6B0B4A48
:1012600043F400131363094B1B6B03F400137B60FF
:101270007B6800220021102000F0C3FC102000F049
:10128000DCFC00BF0837BD4680BD00BF003802400F
:1012900080B588B000AF07F10C0300221A605A60D5
:1012A0009A60DA601A610023BB60264B1B6B254AEB
:1012B00043F080031363234B1B6B03F08003BB607D
:1012C000BB6800237B601F4B1B6B1E4A43F001036E
:1012D00013631C4B1B6B03F001037B607B680023D3
:1012E0003B60184B1B6B174A43F008031363154B05
:1012F0001B6B03F008033B603B6800224FF4704116
:10130000114801F0A9FB0123FB6000233B6100238E
:101310007B6107F10C0319460C4801F001FA4FF408
:101320007043FB6001233B6100237B610023BB61B1
:1013300007F10C031946044801F0F2F900BF203709
:10134000BD4680BD00380240000C02400000024053
:1013500080B483B000AF00237B600FE00D4A7B6850
:1013600052F823200C497B6851F823301A440B496A
:101370007B6841F823207B6801337B607B68B3F591
:10138000C87FEBDB00BF00BF0C37BD465DF8047BB8
:10139000704700BF6C0800204C150020A01B0020E7
:1013A00080B582B000AF00237B6015E003F0F2FA55
:1013B00001460E4B83FB01235A10CB17D21A13465A
:1013C0009B001344CA1AD3011946094A7B6842F8A4
:1013D00023107B6801337B607B68B3F5C87FE5DB56
:1013E00000BF00BF0837BD4680BD00BF67666666A8
:1013F0006C08002080B582B000AF00237B6036E02F
:101400007B6807EE903AF8EEE77A9FED1D7A67EE7B
:10141000877A77EEA77A9FED1B7AC7EE876A16EE7A
:10142000900AFFF791F802460B4643EC102B07F0A9
:101430009BF851EC100B4FF00002134BFEF726FF08
:1014400002460B46104619464FF000020F4BFFF7BD
:10145000D3F802460B4610461946FFF7A5FB024695
:101460000B497B6841F823207B6801337B607B68F4
:10147000B3F5C87FC4DB00BF00BF0837BD4680BDE1
:10148000D80F49400000C8430000F03F0000A040D2
:101490004C15002080B582B000AF00237B6041E096
:1014A00000233B6022E0244A7B689B00134493EDB9
:1014B000007A224A3B689B001344D3ED006A7A68A5
:1014C0003B68D31A1E4A52F8233007EE903AF8EEE2
:1014D000677A66EEA77A77EE277A174A7B689B00D1
:1014E0001344C3ED007A3B6801333B603B68082B33
:1014F000D9DD114A7B689B001344D3ED007AFCEEE2
:10150000E77A17EE901A0F4A7B6842F823100D4ACB
:101510007B6852F8233019460B4803F023FA7B68A6
:1015200001337B607B68B3F5C87FB9DB00BF00BFC8
:101530000837BD4680BD00BF2C02002000000020FF
:10154000A01B0020AC0E0020F095000880B586B0EE
:1015500000AFF860B9607A6000237B6100237B6193
:1015600009E0BB685A1CBA601B781846FFF73EFDBD
:101570007B6901337B617A697B689A42F1DB7B6826
:1015800018461837BD4680BD80B400AF72B600BFA4
:10159000FEE7000080B483B000AF00237B60104BF7
:1015A0005B6C0F4A43F4804353640D4B5B6C03F454
:1015B00080437B607B6800233B60094B1B6C084ABF
:1015C00043F080531364064B1B6C03F080533B6065
:1015D0003B6800BF0C37BD465DF8047B704700BF19
:1015E0000038024080B58AB000AF786007F114037C
:1015F00000221A605A609A60DA601A617B681B6880
:101600002F4A934258D100233B612E4B1B6C2D4A2D
:1016100043F0005313642B4B1B6C03F000533B61EE
:101620003B690023FB60274B1B6B264A43F00103F9
:101630001363244B1B6B03F00103FB60FB68102357
:101640007B610323BB610023FB6107F1140319468F
:101650001D4801F065F81D4B1D4A1A601B4B4FF0E9
:1016600060625A60194B40229A60184B0022DA607F
:10167000164B4FF480621A61144B4FF480525A613A
:10168000124B4FF480429A61104B4FF48072DA6132
:101690000E4B00221A620D4B00225A620B4800F0DA
:1016A000CFFC0346002B01D0FFF76EFF7B68074A93
:1016B0009A60064A7B68936300BF2837BD4680BDA9
:1016C000007400400038024000000240EC1400208A
:1016D0008860024080B584B000AF78607B681B688A
:1016E000B3F1804F15D10023FB600C4B1B6C0B4AF0
:1016F00043F001031364094B1B6C03F00103FB600F
:10170000FB68002200211C2000F07BFA1C2000F066
:1017100094FA00BF1037BD4680BD00BF00380240BC
:1017200080B400AFFEE780B400AFFEE780B400AF46
:10173000FEE780B400AFFEE780B400AFFEE780B400
:1017400000AF00BFBD465DF8047B704780B400AFBA
:1017500000BFBD465DF8047B704780B400AF00BF9A
:10176000BD465DF8047B704780B500AF00F04EF9D0
:1017700000BF80BD80B500AF024800F067FD00BF2C
:1017800080BD00BFEC14002080B500AF024801F01E
:1017900075FE00BF80BD00BFE421002080B400AF13
:1017A00001231846BD465DF8047B704780B582B0C2
:1017B00000AF7860396002F029FA034616221A60F9
:1017C0004FF0FF3318460837BD4680BD80B582B064
:1017D00000AF78604FF0FF317868FFF7E7FFFEE772
:1017E00080B586B000AFF860B9607A6000237B6195
:1017F0000AE0AFF300800146BB685A1CBA60CAB267
:101800001A707B6901337B617A697B689A42F0DBED
:101810007B6818461837BD4680BD80B483B000AFE2
:1018200078604FF0FF3318460C37BD465DF8047BF7
:10183000704780B483B000AF786039603B684FF484
:1018400000525A60002318460C37BD465DF8047BF1
:10185000704780B483B000AF7860012318460C371E
:10186000BD465DF8047B704780B485B000AFF8607A
:10187000B9607A60002318461437BD465DF8047BD2
:101880007047000080B586B000AF7860144A154BF1
:10189000D31A7B617B693B61134B1B68002B02D120
:1018A000114B124A1A60104B1A687B6813443A694C
:1018B0009A4207D202F0AAF903460C221A604FF0AE
:1018C000FF3309E0084B1B68FB60074B1A687B6815
:1018D0001344054A1360FB6818461837BD4680BD9F
:1018E000000002200004000020020020402200200E
:1018F00080B400AF064BD3F88830054A43F4700338
:10190000C2F8883000BFBD465DF8047B704700BF59
:1019100000ED00E0DFF834D00D480E490E4A0023F8
:1019200002E0D458C4500433C4188C42F9D30B4A93
:101930000B4C002301E013600432A242FBD3FFF7FB
:10194000D7FF02F069F9FFF779FB7047000002202A
:101950000000002004020020089D0008040200206E
:1019600040220020FEE7000080B500AF0E4B1B6850
:101970000D4A43F4007313600B4B1B680A4A43F48F
:1019800080631360084B1B68074A43F4807313603D
:10199000032000F02BF9002000F008F8FFF7FAFD13
:1019A0000023184680BD00BF003C024080B582B0D5
:1019B00000AF7860124B1A68124B1B7819464FF42F
:1019C0007A73B3FBF1F3B2FBF3F3184600F043F97B
:1019D0000346002B01D001230EE07B680F2B0AD8B1
:1019E000002279684FF0FF3000F00BF9064A7B685F
:1019F0001360002300E0012318460837BD4680BD70
:101A0000240000202C0000202800002080B400AF1B
:101A1000064B1B781A46064B1B681344044A136096
:101A200000BFBD465DF8047B704700BF2C0000205E
:101A30002C22002080B400AF034B1B681846BD4623
:101A40005DF8047B704700BF2C22002080B485B075
:101A500000AF78607B6803F00703FB600C4BDB682A
:101A6000BB60BA684FF6FF031340BB60FB681A0205
:101A7000BB68134343F0BF6343F40033BB60044AC5
:101A8000BB68D36000BF1437BD465DF8047B704768
:101A900000ED00E080B400AF044BDB681B0A03F0EC
:101AA00007031846BD465DF8047B704700ED00E073
:101AB00080B483B000AF0346FB7197F90730002B69
:101AC0000BDBFB7903F01F02074997F907305B092D
:101AD000012000FA02F241F8232000BF0C37BD4676
:101AE0005DF8047B704700BF00E100E080B483B084
:101AF00000AF03463960FB7197F90730002B0ADB12
:101B00003B68DAB20C4997F907301201D2B20B44A4
:101B100083F800230AE03B68DAB20849FB7903F056
:101B20000F03043B1201D2B20B441A7600BF0C37EC
:101B3000BD465DF8047B704700E100E000ED00E089
:101B400080B489B000AFF860B9607A60FB6803F0D8
:101B50000703FB61FB69C3F10703042B28BF0423C0
:101B6000BB61FB690433062B02D9FB69033B00E030
:101B700000237B614FF0FF32BB6902FA03F3DA43C3
:101B8000BB681A407B699A404FF0FF317B6901FACC
:101B900003F3D9437B680B40134318462437BD46F3
:101BA0005DF8047B7047000080B582B000AF7860BC
:101BB0007B68013BB3F1807F01D301230FE00A4A28
:101BC0007B68013B53600F214FF0FF30FFF78EFF22
:101BD000054B00229A60044B07221A600023184626
:101BE0000837BD4680BD00BF10E000E080B582B080
:101BF00000AF78607868FFF729FF00BF0837BD465F
:101C000080BD80B586B000AF0346B9607A60FB73D3
:101C100000237B61FFF73EFF78617A68B9687869D5
:101C2000FFF78EFF024697F90F3011461846FFF76F
:101C30005DFF00BF1837BD4680BD80B582B000AFE4
:101C40000346FB7197F907301846FFF731FF00BFD5
:101C50000837BD4680BD80B582B000AF7860786837
:101C6000FFF7A2FF034618460837BD4680BD80B582
:101C700082B000AF78607B68002B01D1012314E0B3
:101C80007B681B79DBB2002B05D17B6800225A717F
:101C90007868FFF7A7FC7B6802221A717B68002234
:101CA0001A617B6801221A71002318460837BD4665
:101CB00080BD000080B586B000AFF860B9607A6082
:101CC0003B600123FB7500233B61FB685B79012BC3
:101CD00001D10223ABE0FB6801225A71FB680222AA
:101CE0001A71BB68002B2FD1FB689B68524ADA63DC
:101CF000FB689B68514A1A64FB689B68504ADA6427
:101D0000FB681B681A68FB681B6842F480521A6003
:101D10003B6A082B13D03B6A082B45D83B6A002B43
:101D200003D03B6A042B05D03EE0FB681B680833F8
:101D30003B613CE0FB681B680C333B6137E0FB68B0
:101D40001B6810333B6132E0FB68DB683D4ADA63B5
:101D5000FB68DB683C4A1A64FB68DB683B4ADA6470
:101D6000FB681B681A68FB681B6842F080521A60A7
:101D70003B6A082B13D03B6A082B17D83B6A002B11
:101D800003D03B6A042B05D010E0FB681B681433BA
:101D90003B610CE0FB681B6818333B6107E0FB68A4
:101DA0001B681C333B6102E000BF00E000BFBB6862
:101DB000002B11D1FB681B681A68FB681B6842F492
:101DC00000521A60FB68986879683B683A6900F0CD
:101DD000E5F90346FB7510E0FB681B681A68FB68B1
:101DE0001B6842F000521A60FB68D86879683B684B
:101DF0003A6900F0D3F90346FB75FB6800225A717B
:101E0000FB7D002B0CD1FB681B681968BB6803F0D5
:101E1000100301229A40FB681B680A431A6005E020
:101E2000FB681B6943F00402FB681A61FB7D1846DE
:101E30001837BD4680BD00BF2B1F00084D1F00088E
:101E4000691F0008D31F0008F51F000811200008B3
:101E500080B483B000AF786000BF0C37BD465DF83A
:101E6000047B704780B483B000AF786000BF0C374C
:101E7000BD465DF8047B704780B483B000AF7860E6
:101E800000BF0C37BD465DF8047B704780B487B057
:101E900000AFF860B9607A60FB685B79012B01D113
:101EA00002233CE0FB6801225A71FB6802221A718E
:101EB000FB681B681B687B617B6803F0100340F6BE
:101EC000FE7202FA03F3DB437A6913407B61BB685D
:101ED0001A68BB685B6813433B617B6803F01003BF
:101EE0003A6902FA03F37A6913437B61FB681B6862
:101EF0007A691A60FB681B6819687B6803F0100335
:101F0000C02202FA03F3DA43FB681B680A401A6036
:101F1000FB6801221A71FB6800225A7100231846DF
:101F20001C37BD465DF8047B704780B584B000AFB8
:101F300078607B689B6BFB60F868FFF789FFFB6844
:101F400001221A7100BF1037BD4680BD80B584B034
:101F500000AF78607B689B6BFB60F868FFF782FFDF
:101F600000BF1037BD4680BD80B584B000AF78603B
:101F70007B689B6BFB60FB681B6943F00402FB689A
:101F80001A61F868FFF778FFFB6801221A7100BF39
:101F90001037BD4680BD80B483B000AF786000BF0D
:101FA0000C37BD465DF8047B704780B483B000AF4A
:101FB000786000BF0C37BD465DF8047B704780B485
:101FC00083B000AF786000BF0C37BD465DF8047B7E
:101FD000704780B584B000AF78607B689B6BFB6016
:101FE000F868FFF7D8FFFB6801221A7100BF1037AD
:101FF000BD4680BD80B584B000AF78607B689B6BC8
:10200000FB60F868FFF7D1FF00BF1037BD4680BD09
:1020100080B584B000AF78607B689B6BFB60FB6829
:102020001B6943F00402FB681A61F868FFF7C7FFF9
:10203000FB6801221A7100BF1037BD4680BD000049
:1020400080B586B000AF786000237B61FFF7F2FCBB
:1020500038617B68002B01D1012399E07B68002265
:1020600083F834207B68022283F835207B681B6864
:102070001A687B681B6822F001021A600FE0FFF704
:10208000D9FC02463B69D31A052B08D97B6820226C
:102090005A657B68032283F83520032378E07B6848
:1020A0001B681B6803F00103002BE8D17B681B68E9
:1020B0001B687B617A69384B13407B617B685A6887
:1020C0007B689B681A437B68DB681A437B681B69E3
:1020D0001A437B685B691A437B689B691A437B6878
:1020E000DB691A437B681B6A13437A6913437B617C
:1020F0007B685B6A042B07D17B68DA6A7B681B6BA1
:1021000013437A6913437B617B681B687A691A60A1
:102110007B681B685B697B617B6923F007037B61DC
:102120007B685B6A7A6913437B617B685B6A042B1B
:1021300017D17B689B6A7A6913437B617B68DB6A92
:10214000002B0ED0786800F06FFA0346002B08D001
:102150007B6840225A657B68012283F83520012381
:1021600016E07B681B687A695A61786800F026FA85
:102170000346FB607B68DB6D3F229A40FB689A60F8
:102180007B6800225A657B68012283F83520002392
:1021900018461837BD4680BD3F8010F080B586B028
:1021A00000AFF860B9607A603B600023FB75FB68A4
:1021B0009B6D3B61FB6893F83430012B01D1022306
:1021C00040E0FB68012283F83420FB6893F8353047
:1021D000DBB2012B2FD1FB68022283F83520FB688C
:1021E00000225A653B687A68B968F86800F0B8F967
:1021F000FB68DB6D3F229A403B699A60FB681B6875
:102200001A68FB681B6842F016021A60FB681B6CB8
:10221000002B07D0FB681B681A68FB681B6842F03C
:1022200008021A60FB681B681A68FB681B6842F0AA
:1022300001021A6005E0FB68002283F834200223C3
:10224000FB75FB7D18461837BD4680BD80B586B04E
:1022500000AF78600023BB60924B1B68924AA2FBE0
:1022600003239B0A7B617B689B6D3B613B691B6819
:10227000FB607B68DB6D08229A40FB681340002BF3
:102280001AD07B681B681B6803F00403002B13D073
:102290007B681B681A687B681B6822F004021A605E
:1022A0007B68DB6D08229A403B699A607B685B6DB6
:1022B00043F001027B685A657B68DB6D01229A401E
:1022C000FB681340002B12D07B681B685B6903F02E
:1022D0008003002B0BD07B68DB6D01229A403B69A9
:1022E0009A607B685B6D43F002027B685A657B688D
:1022F000DB6D04229A40FB681340002B12D07B68F0
:102300001B681B6803F00203002B0BD07B68DB6D9E
:1023100004229A403B699A607B685B6D43F004023B
:102320007B685A657B68DB6D10229A40FB6813401E
:10233000002B43D07B681B681B6803F00803002B4D
:102340003CD07B68DB6D10229A403B699A607B68C9
:102350001B681B6803F48023002B18D07B681B6864
:102360001B6803F40023002B08D17B681B6C002B37
:1023700024D07B681B6C786898471FE07B689B6C57
:10238000002B1BD07B689B6C7868984716E07B68B5
:102390001B681B6803F48073002B07D17B681B68E4
:1023A0001A687B681B6822F008021A607B681B6C45
:1023B000002B03D07B681B6C786898477B68DB6DCB
:1023C00020229A40FB681340002B00F08E807B682F
:1023D0001B681B6803F01003002B00F086807B68ED
:1023E000DB6D20229A403B699A607B6893F8353018
:1023F000DBB2052B36D17B681B681A687B681B68CB
:1024000022F016021A607B681B685A697B681B6899
:1024100022F080025A617B681B6C002B03D17B6821
:102420009B6C002B07D07B681B681A687B681B6855
:1024300022F008021A607B68DB6D3F229A403B69FC
:102440009A607B68002283F834207B68012283F83D
:1024500035207B681B6D002B7DD07B681B6D7868F9
:10246000984778E07B681B681B6803F48023002B87
:102470001CD07B681B681B6803F40023002B08D169
:102480007B685B6C002B30D07B685B6C786898470E
:102490002BE07B68DB6B002B27D07B68DB6B7868DD
:1024A000984722E024000020B5814E1B7B681B6802
:1024B0001B6803F48073002B0FD17B681B681A68BC
:1024C0007B681B6822F010021A607B68002283F888
:1024D00034207B68012283F835207B68DB6B002B7E
:1024E00003D07B68DB6B786898477B685B6D002B5B
:1024F00032D07B685B6D03F00103002B22D07B6838
:10250000052283F835207B681B681A687B681B6886
:1025100022F001021A60BB680133BB607A699A42FB
:1025200007D37B681B681B6803F00103002BF2D103
:1025300000E000BF7B68002283F834207B68012222
:1025400083F835207B68DB6C002B05D07B68DB6C67
:102550007868984700E000BF1837BD4680BD00BFCF
:1025600080B485B000AFF860B9607A603B60FB680A
:102570001B681A68FB681B6822F480221A60FB68DB
:102580001B683A685A60FB689B68402B08D1FB685F
:102590001B687A689A60FB681B68BA68DA6007E0B3
:1025A000FB681B68BA689A60FB681B687A68DA6027
:1025B00000BF1437BD465DF8047B704780B485B01A
:1025C00000AF78607B681B68DBB2103B144AA2FB4B
:1025D00003231B09FB60134AFB6813441B781A464C
:1025E0007B68DA65FB68032B09D97B681B6823F4D9
:1025F0007F7323F003031A1D7B689A6507E07B68ED
:102600001B6823F47F7323F003037A6893657B6868
:102610009B6D18461437BD465DF8047B704700BFBC
:10262000ABAAAAAA0496000880B485B000AF78606F
:102630000023FB737B689B6ABB607B689B69002BF4
:102640001FD1BB68032B56D801A252F823F000BF5C
:10265000612600087326000861260008F726000896
:102660007B68DB6A03F08073002B46D00123FB7389
:1026700043E07B68DB6AB3F1C07F40D10123FB7389
:102680003DE07B689B69B3F5005F21D1BB68032BFC
:1026900037D801A252F823F0A9260008AF26000877
:1026A000A9260008C12600080123FB7330E07B68DF
:1026B000DB6A03F08073002B25D00123FB7322E03B
:1026C0007B68DB6AB3F1C07F1FD10123FB731CE081
:1026D000BB68022B03D9BB68032B03D018E001238E
:1026E000FB7315E07B68DB6A03F08073002B0ED070
:1026F0000123FB730BE000BF0AE000BF08E000BF4E
:1027000006E000BF04E000BF02E000BF00E000BF41
:10271000FB7B18461437BD465DF8047B704700BF4D
:1027200080B489B000AF7860396000237B610023FA
:102730003B610023BB610023FB616BE10122FB696C
:1027400002FA03F37B613B681B687A6913403B61C3
:102750003A697B699A4240F05A813B685B6803F0B2
:102760000303012B05D03B685B6803F00303022BD6
:1027700030D17B689B68BB61FB695B00032202FA76
:1027800003F3DB43BA691340BB613B68DA68FB695A
:102790005B0002FA03F3BA691343BB617B68BA6951
:1027A0009A607B685B68BB610122FB6902FA03F3F4
:1027B000DB43BA691340BB613B685B681B0903F0EC
:1027C0000102FB6902FA03F3BA691343BB617B6838
:1027D000BA695A603B685B6803F00303032B17D0A8
:1027E0007B68DB68BB61FB695B00032202FA03F3D1
:1027F000DB43BA691340BB613B689A68FB695B00C5
:1028000002FA03F3BA691343BB617B68BA69DA6001
:102810003B685B6803F00303022B23D1FB69DA08F2
:102820007B68083253F82230BB61FB6903F0070371
:102830009B000F2202FA03F3DB43BA691340BB612A
:102840003B681A69FB6903F007039B0002FA03F374
:10285000BA691343BB61FB69DA087B680832B9695E
:1028600043F822107B681B68BB61FB695B00032295
:1028700002FA03F3DB43BA691340BB613B685B6850
:1028800003F00302FB695B0002FA03F3BA69134326
:10289000BB617B68BA691A603B685B6803F0805370
:1028A000002B00F0B4800023FB60604B5B6C5F4A40
:1028B00043F4804353645D4B5B6C03F48043FB60E3
:1028C000FB685B4AFB699B08023352F82330BB610B
:1028D000FB6903F003039B000F2202FA03F3DB43BF
:1028E000BA691340BB617B68524A93422BD07B6824
:1028F000514A934225D07B68504A93421FD07B684F
:102900004F4A934219D07B684E4A934213D07B685A
:102910004D4A93420DD07B684C4A934207D07B6866
:102920004B4A934201D107230EE008230CE0062313
:102930000AE0052308E0042306E0032304E0022361
:1029400002E0012300E00023FA6902F00302920092
:102950009340BA691343BB613549FB699B08023355
:10296000BA6941F823203B4B1B68BB613B69DB43E1
:10297000BA691340BB613B685B6803F48033002B8A
:1029800003D0BA693B691343BB61324ABB69136028
:10299000304B5B68BB613B69DB43BA691340BB6189
:1029A0003B685B6803F40033002B03D0BA693B69D2
:1029B0001343BB61274ABB695360264B9B68BB61CD
:1029C0003B69DB43BA691340BB613B685B6803F456
:1029D0008013002B03D0BA693B691343BB611D4AC6
:1029E000BB6993601B4BDB68BB613B69DB43BA6926
:1029F0001340BB613B685B6803F40013002B03D0FA
:102A0000BA693B691343BB61124ABB69D360FB6976
:102A10000133FB61FB690F2B7FF690AE00BF00BF57
:102A20002437BD465DF8047B704700BF0038024084
:102A3000003801400000024000040240000802404B
:102A4000000C024000100240001402400018024036
:102A5000001C0240003C014080B483B000AF7860AD
:102A60000B467B8013467B707B78002B03D07A88E3
:102A70007B689A6103E07B881A047B689A6100BFD7
:102A80000C37BD465DF8047B7047000080B586B00A
:102A900000AF78607B68002B01D1012364E27B6882
:102AA0001B6803F00103002B75D0A34B9B6803F058
:102AB0000C03042B0CD0A04B9B6803F00C03082BD9
:102AC00012D19D4B5B6803F48003B3F5800F0BD1EB
:102AD000994B1B6803F40033002B5BD07B685B6869
:102AE000002B57D101233FE27B685B68B3F5803F41
:102AF00006D1914B1B68904A43F4803313601DE06C
:102B00007B685B68B3F5A02F0CD18B4B1B688A4A9E
:102B100043F480231360884B1B68874A43F4803357
:102B200013600BE0844B1B68834A23F480331360EB
:102B3000814B1B68804A23F4802313607B685B68A9
:102B4000002B13D0FEF776FF386108E0FEF772FF26
:102B500002463B69D31A642B01D9032304E2764B66
:102B60001B6803F40033002BF0D014E0FEF762FF83
:102B7000386108E0FEF75EFF02463B69D31A642B1A
:102B800001D90323F0E16C4B1B6803F40033002BE5
:102B9000F0D100E000BF7B681B6803F00203002B4C
:102BA00063D0654B9B6803F00C03002B0BD0624B8A
:102BB0009B6803F00C03082B1CD15F4B5B6803F48C
:102BC0008003002B16D15C4B1B6803F00203002B23
:102BD00005D07B68DB68012B01D00123C4E1564B93
:102BE0001B6823F0F8027B681B69DB005249134322
:102BF0000B603AE07B68DB68002B20D04F4B012252
:102C00001A60FEF717FF386108E0FEF713FF02466F
:102C10003B69D31A022B01D90323A5E1464B1B685C
:102C200003F00203002BF0D0434B1B6823F0F802A3
:102C30007B681B69DB00404913430B6015E03F4B89
:102C400000221A60FEF7F6FE386108E0FEF7F2FE99
:102C500002463B69D31A022B01D9032384E1364B88
:102C60001B6803F00203002BF0D17B681B6803F0A4
:102C70000803002B30D07B685B69002B16D0304BEB
:102C800001221A60FEF7D6FE386108E0FEF7D2FE98
:102C900002463B69D31A022B01D9032364E1264B78
:102CA0005B6F03F00203002BF0D015E0244B0022F1
:102CB0001A60FEF7BFFE386108E0FEF7BBFE024671
:102CC0003B69D31A022B01D903234DE11A4B5B6FE9
:102CD00003F00203002BF0D17B681B6803F00403B0
:102CE000002B00F0A0800023FB75134B1B6C03F03E
:102CF0008053002B0FD10023BB600F4B1B6C0E4A7F
:102D000043F0805313640C4B1B6C03F08053BB6087
:102D1000BB680123FB750B4B1B6803F48073002B0E
:102D200021D1084B1B68074A43F480731360FEF7F8
:102D300081FE386111E000BF0038024000004742C8
:102D4000800E474200700040FEF774FE02463B6969
:102D5000D31A022B01D9032306E1854B1B6803F428
:102D60008073002BF0D07B689B68012B06D1814BD0
:102D70001B6F804A43F0010313671CE07B689B686C
:102D8000052B0CD17B4B1B6F7A4A43F0040313676E
:102D9000784B1B6F774A43F0010313670BE0754BC9
:102DA0001B6F744A23F001031367724B1B6F714A48
:102DB00023F0040313677B689B68002B15D0FEF794
:102DC00039FE38610AE0FEF735FE02463B69D31A48
:102DD00041F28832934201D90323C5E0654B1B6F52
:102DE00003F00203002BEED014E0FEF723FE38615F
:102DF0000AE0FEF71FFE02463B69D31A41F2883211
:102E0000934201D90323AFE05A4B1B6F03F0020337
:102E1000002BEED1FB7D012B05D1564B1B6C554A87
:102E200023F0805313647B689B69002B00F09B8028
:102E3000504B9B6803F00C03082B5CD07B689B69AC
:102E4000022B41D14C4B00221A60FEF7F3FD386192
:102E500008E0FEF7EFFD02463B69D31A022B01D9C9
:102E6000032381E0434B1B6803F00073002BF0D178
:102E70007B68DA697B681B6A1A437B685B6A9B0123
:102E80001A437B689B6A5B08013B1B041A437B68FF
:102E9000DB6A1B06374913434B60374B01221A602C
:102EA000FEF7C8FD386108E0FEF7C4FD02463B6945
:102EB000D31A022B01D9032356E02E4B1B6803F0D3
:102EC0000073002BF0D04EE02B4B00221A60FEF76F
:102ED000B1FD386108E0FEF7ADFD02463B69D31A4B
:102EE000022B01D903233FE0224B1B6803F0007340
:102EF000002BF0D137E07B689B69012B01D10123C6
:102F000032E01C4B5B68FB607B689B69012B28D01F
:102F1000FB6803F480027B68DB699A4221D1FB687D
:102F200003F03F027B681B6A9A421AD1FA6847F69F
:102F3000C07313407A68526A9201934211D1FB68C0
:102F400003F440327B689B6A5B08013B1B049A4296
:102F500007D1FB6803F070627B68DB6A1B069A424C
:102F600001D0012300E0002318461837BD4680BD7C
:102F700000700040003802406000474280B584B0D5
:102F800000AF786039607B68002B01D10123CCE071
:102F9000684B1B6803F007033A689A420CD9654BEB
:102FA0003A68D2B21A70634B1B6803F007033A68A1
:102FB0009A4201D00123B8E07B681B6803F002034A
:102FC000002B20D07B681B6803F00403002B05D086
:102FD000594B9B68584A43F4E05393607B681B68E5
:102FE00003F00803002B05D0534B9B68524A43F46F
:102FF00060439360504B9B6823F0F0027B689B68B2
:103000004D4913438B607B681B6803F00103002B61
:1030100044D07B685B68012B07D1474B1B6803F4E6
:103020000033002B19D101237FE07B685B68022B02
:1030300003D07B685B68032B07D13F4B1B6803F011
:103040000073002B09D101236FE03B4B1B6803F099
:103050000203002B01D1012367E0374B9B6823F06B
:1030600003027B685B68344913438B60FEF7E2FC24
:10307000F8600AE0FEF7DEFC0246FB68D31A41F274
:103080008832934201D903234FE02B4B9B6803F016
:103090000C027B685B689B009A42EBD1254B1B6856
:1030A00003F007033A689A420CD2224B3A68D2B234
:1030B0001A70204B1B6803F007033A689A4201D04C
:1030C000012332E07B681B6803F00403002B08D067
:1030D000194B9B6823F4E0527B68DB681649134365
:1030E0008B607B681B6803F00803002B09D0124B30
:1030F0009B6823F460427B681B69DB000E49134325
:103100008B6000F021F802460B4B9B681B0903F013
:103110000F030A49CB5C22FA03F3094A1360094BF7
:103120001B681846FEF742FC002318461037BD46C0
:1031300080BD00BF003C024000380240F49500080A
:1031400024000020280000202DE9B04384B000AF07
:1031500000237B600023FB6000233B600023BB60F7
:10316000674B9B6803F00C03082B0DD0082B00F273
:10317000BD80002B02D0042B03D0B7E0614BBB60B5
:10318000B7E0614BBB60B4E05D4B5B6803F03F03AD
:103190007B605B4B5B6803F48003002B4DD0584B86
:1031A0005B689B091A464FF0000340F2FF104FF096
:1031B000000102EA000803EA0109404649464FF0CF
:1031C00000024FF000034B0143EAD0634201104676
:1031D0001946B0EB080061EB09014FF000024FF017
:1031E00000038B0143EA90638201121A63EB01032F
:1031F0004FF000004FF00001D90041EA5271D000B9
:1032000002460B4612EB080243EB09034FF00000A5
:103210004FF00001590241EAD251500202460B46DA
:10322000104619467B681A464FF00003FDF72CFD47
:1032300002460B461346FB604AE0314B5B689B0934
:103240001A464FF0000340F2FF104FF0000102EA6F
:10325000000403EA0105204629464FF000024FF022
:1032600000034B0143EAD063420110461946001B9C
:1032700061EB05014FF000024FF000038B0143EAC0
:1032800090638201121A63EB01034FF000004FF0CC
:103290000001D90041EA5271D00002460B461219D2
:1032A00045EB03034FF000004FF00001990241EAA3
:1032B0009251900202460B46104619467B681A4608
:1032C0004FF00003FDF7E0FC02460B461346FB609F
:1032D0000B4B5B681B0C03F0030301335B003B608B
:1032E000FA683B68B2FBF3F3BB6002E0054BBB60DE
:1032F00000BFBB6818461037BD46BDE8B08300BFAD
:10330000003802400024F40000127A0080B582B038
:1033100000AF78607B68002B01D1012341E07B681E
:1033200093F83D30DBB2002B06D17B68002283F896
:103330003C207868FEF7CEF97B68022283F83D20B6
:103340007B681A687B6804331946104600F094FACB
:103350007B68012283F846207B68012283F83E20A7
:103360007B68012283F83F207B68012283F840209C
:103370007B68012283F841207B68012283F8422088
:103380007B68012283F843207B68012283F8442074
:103390007B68012283F845207B68012283F83D2069
:1033A000002318460837BD4680BD000080B485B0B4
:1033B00000AF78607B6893F83D30DBB2012B01D021
:1033C000012346E07B68022283F83D207B681B686E
:1033D000234A934222D07B681B68B3F1804F1DD0F3
:1033E0007B681B681F4A934218D07B681B681E4A83
:1033F000934213D07B681B681C4A93420ED07B68B3
:103400001B681B4A934209D07B681B68194A934288
:1034100004D07B681B68184A934211D17B681B68F3
:103420009B6803F00703FB60FB68062B10D07B68EA
:103430001B681A687B681B6842F001021A6007E08B
:103440007B681B681A687B681B6842F001021A607F
:10345000002318461437BD465DF8047B704700BF53
:10346000000001400004004000080040000C004043
:1034700000040140004001400018004080B582B0C7
:1034800000AF78607B681B681B6903F00203022BA6
:1034900022D17B681B68DB6803F00203022B1BD17F
:1034A0007B681B686FF002021A617B6801221A7741
:1034B0007B681B689B6903F00303002B03D07868CB
:1034C00000F0BCF905E0786800F0AEF9786800F02B
:1034D000BFF97B6800221A777B681B681B6903F0C1
:1034E0000403042B22D17B681B68DB6803F0040310
:1034F000042B1BD17B681B686FF004021A617B6888
:1035000002221A777B681B689B6903F44073002BC7
:1035100003D0786800F092F905E0786800F084F94B
:10352000786800F095F97B6800221A777B681B6841
:103530001B6903F00803082B22D17B681B68DB683A
:1035400003F00803082B1BD17B681B686FF008028F
:103550001A617B6804221A777B681B68DB6903F0B9
:103560000303002B03D0786800F068F905E0786861
:1035700000F05AF9786800F06BF97B6800221A773E
:103580007B681B681B6903F01003102B22D17B683A
:103590001B68DB6803F01003102B1BD17B681B68D2
:1035A0006FF010021A617B6808221A777B681B682B
:1035B000DB6903F44073002B03D0786800F03EF918
:1035C00005E0786800F030F9786800F041F97B6830
:1035D00000221A777B681B681B6903F00103012B2B
:1035E0000ED17B681B68DB6803F00103012B07D158
:1035F0007B681B686FF001021A61786800F00AF9B5
:103600007B681B681B6903F08003802B0ED17B68ED
:103610001B68DB6803F08003802B07D17B681B6885
:103620006FF080021A61786800F0E6FA7B681B6828
:103630001B6903F04003402B0ED17B681B68DB68DD
:1036400003F04003402B07D17B681B686FF04002FA
:103650001A61786800F006F97B681B681B6903F043
:103660002003202B0ED17B681B68DB6803F020034E
:10367000202B07D17B681B686FF020021A617868E5
:1036800000F0B0FA00BF0837BD4680BD80B584B0F9
:1036900000AF786039607B6893F83C30012B01D132
:1036A0000223B3E07B68012283F83C207B6802227E
:1036B00083F83D207B681B689B68FB60FB6823F0F8
:1036C0007703FB60FB6823F47F43FB607B681B6828
:1036D000FA689A603B681B68B3F5005F3ED0B3F5AB
:1036E000005F00F28780B3F5805F00F08580B3F55E
:1036F000805F7FD8702B1AD0702B7BD8602B50D076
:10370000602B77D8502B3CD0502B73D8402B58D0FF
:10371000402B6FD8302B64D0302B6BD8202B60D04F
:10372000202B67D8002B5CD0102B5AD062E07B682E
:1037300018683B6899683B685A683B68DB6800F02A
:10374000B5F97B681B689B68FB60FB6843F07703F7
:10375000FB607B681B68FA689A604EE07B681868BB
:103760003B6899683B685A683B68DB6800F09EF9E3
:103770007B681B689A687B681B6842F480429A6089
:103780003BE07B6818683B6859683B68DB681A4611
:1037900000F012F97B681B685021184600F06BF9A5
:1037A0002BE07B6818683B6859683B68DB681A4601
:1037B00000F031F97B681B686021184600F05BF966
:1037C0001BE07B6818683B6859683B68DB681A46F1
:1037D00000F0F2F87B681B684021184600F04BF9B6
:1037E0000BE07B681A683B681B681946104600F0BE
:1037F00042F902E000BF00E000BF7B68012283F8CD
:103800003D207B68002283F83C20002318461037B7
:10381000BD4680BD80B483B000AF786000BF0C3778
:10382000BD465DF8047B704780B483B000AF78601C
:1038300000BF0C37BD465DF8047B704780B483B091
:1038400000AF786000BF0C37BD465DF8047B704761
:1038500080B483B000AF786000BF0C37BD465DF820
:10386000047B704780B483B000AF786000BF0C3732
:10387000BD465DF8047B704780B485B000AF7860CA
:1038800039607B681B68FB607B68404A934213D0B9
:103890007B68B3F1804F0FD07B683D4A93420BD0D9
:1038A0007B683C4A934207D07B683B4A934203D0F3
:1038B0007B683A4A934208D1FB6823F07003FB60AF
:1038C0003B685B68FA681343FB607B682F4A93424E
:1038D0002BD07B68B3F1804F27D07B682C4A934272
:1038E00023D07B682B4A93421FD07B682A4A93429D
:1038F0001BD07B68294A934217D07B68284A9342A1
:1039000013D07B68274A93420FD07B68264A9342A4
:103910000BD07B68254A934207D07B68244A9342A8
:1039200003D07B68234A934208D1FB6823F4407399
:10393000FB603B68DB68FA681343FB60FB6823F0BD
:1039400080023B685B691343FB607B68FA681A601E
:103950003B689A687B68DA623B681A687B689A629F
:103960007B680A4A934203D07B680C4A934203D196
:103970003B681A697B681A637B6801225A6100BF41
:103980001437BD465DF8047B704700BF000001405E
:103990000004004000080040000C0040000401400A
:1039A0000040014000440140004801400018004030
:1039B000001C00400020004080B487B000AFF860D9
:1039C000B9607A60FB681B6A7B61FB681B6A23F045
:1039D0000102FB681A62FB689B693B613B6923F04B
:1039E000F0033B617B681B013A6913433B617B69D0
:1039F00023F00A037B617A69BB6813437B61FB6830
:103A00003A699A61FB687A691A6200BF1C37BD4641
:103A10005DF8047B704780B487B000AFF860B96090
:103A20007A60FB681B6A23F01002FB681A62FB686D
:103A30009B697B61FB681B6A3B617B6923F4704374
:103A40007B617B681B037A6913437B613B6923F0CD
:103A5000A0033B61BB681B013A6913433B61FB68F0
:103A60007A699A61FB683A691A6200BF1C37BD46E1
:103A70005DF8047B704780B485B000AF7860396032
:103A80007B689B68FB60FB6823F07003FB603A680F
:103A9000FB68134343F00703FB607B68FA689A6096
:103AA00000BF1437BD465DF8047B704780B487B013
:103AB00000AFF860B9607A603B60FB689B687B612F
:103AC0007B6923F47F437B613B681A027B681A435E
:103AD000BB6813437A6913437B61FB687A699A6018
:103AE00000BF1C37BD465DF8047B704780B485B0CD
:103AF00000AF786039607B6893F83C30012B01D1CE
:103B000002235AE07B68012283F83C207B68022272
:103B100083F83D207B681B685B68FB607B681B68E3
:103B20009B68BB60FB6823F07003FB603B681B680D
:103B3000FA681343FB607B681B68FA685A607B680D
:103B40001B68214A934222D07B681B68B3F1804FE7
:103B50001DD07B681B681D4A934218D07B681B6888
:103B60001B4A934213D07B681B681A4A93420ED0BB
:103B70007B681B68184A934209D07B681B68174A08
:103B8000934204D07B681B68154A93420CD1BB68F2
:103B900023F08003BB603B685B68BA681343BB607B
:103BA0007B681B68BA689A607B68012283F83D20B5
:103BB0007B68002283F83C20002318461437BD465A
:103BC0005DF8047B704700BF000001400004004026
:103BD00000080040000C004000040140004001408B
:103BE0000018004080B483B000AF786000BF0C378D
:103BF000BD465DF8047B704780B483B000AF786049
:103C000000BF0C37BD465DF8047B7047014B186858
:103C1000704700BF3000002070B50D4D0D4C641B87
:103C2000A4100026A64209D10B4D0C4C05F0D2FC85
:103C3000641BA4100026A64205D170BD55F8043BB4
:103C400098470136EEE755F8043B98470136F2E70E
:103C5000009D0008009D0008009D0008049D0008CC
:103C600002440346934200D1704703F8011BF9E771
:103C70002DE9FF4755EC104B002D0E4619462B46FB
:103C8000BBBF05F100431D4600232D230B700D9B88
:103C9000DDF830A0914623F02008BCBF2246144630
:103CA000B8F1460F05D0B8F1450F00D10136022119
:103CB00000E0032103AB019302AB009345EC104BF2
:103CC0005346324601F028FEB8F1470F074602D1AD
:103CD00019F0010F22D0B8F1460F07EB060910D1F9
:103CE0003B78302B0AD10022002320462946FCF7DE
:103CF000EBFE18B9C6F10106CAF80060DAF8003028
:103D000099440022002320462946FCF7DDFE08B135
:103D1000CDF80C903022039B4B4507D3039B0E9AA2
:103D2000DB1B3846136004B0BDE8F087591C0391D3
:103D30001A70F0E7F7B503460029B8BF494203F807
:103D4000022BB4BF2D222B22092942702ADD0DF14E
:103D50000704A4460A27A6460A4691FBF7F607FB86
:103D600016153035632A04F1FF340EF8015C314634
:103D7000F1DC3031AEF1020504F8011C441C294687
:103D800061450AD30DF10902A2EB0E02654588BF19
:103D900000221344181A03B0F0BD11F8012B04F8E7
:103DA000012FEDE7302330318370C170031DF1E73F
:103DB0002DE9F04F2DED028B8DB00C46DDF86080C3
:103DC00016461F46054603F009F8D0F800A05046F5
:103DD000FCF7FEF900230A9323680593D8F8003016
:103DE00094F818B0073323F0070303F10802C8F86A
:103DF0000020D3E90023C4E91223D4E9128929F071
:103E000000430793CDF8188008EE100A9F4BDDE9B8
:103E100006014FF0FF32FCF789FE88BBDDE90601A1
:103E20009A4B4FF0FF32FCF763FE48BB00220023A1
:103E300040464946FCF752FE10B12D2384F843302A
:103E4000934B9448BBF1470F94BF98468046032399
:103E50002361059B23F0040222604FF000090097C4
:103E600033460BAA2146284600F0D8F9013040F02D
:103E700090804FF0FF300DB0BDEC028BBDE8F08FAD
:103E800042464B4640464946FCF750FE40B14B4641
:103E9000002BBCBF2D2384F843307F487F4BD1E7F4
:103EA00063680BF0DF0206925A1C3FD10623636061
:103EB000059B616843F48062002303930AABCDE95C
:103EC00001B309AB49EC108B009322600DF1230381
:103ED0002846FFF7CDFE069B0999472B804608D15F
:103EE000C81C02DB6368994241DDABF1020B5FFA4B
:103EF0008BFBBBF1650F20D801395A4604F1500005
:103F00000991FFF717FF0A9A1318012A81462361C6
:103F100002DC2268D20701D5013323619DF82330EA
:103F2000002B9CD02D2384F8433098E7069A472A2B
:103F3000BED1002BBCD10123B9E7BBF1660F18D16C
:103F4000002963680BDD216113B92268D00702D50F
:103F500001330B442361A1654FF00009DEE713B97B
:103F60002268D20701D50233F4E70123F2E74FF0CC
:103F7000670B0A9B994205DB23682161D807EAD5C4
:103F80004B1CE7E70029D4BFC1F102020122134410
:103F9000E0E723685A0507D423694246314628469C
:103FA000B84701302CD164E7BBF1650F40F2E080E7
:103FB000D4E9120100220023FCF786FD002834D04A
:103FC000374A012331462846B84701303FF451AF04
:103FD000DDE909239A4202DB2368D80710D518EEE1
:103FE000103A524631462846B84701303FF441AFB7
:103FF0004FF0000804F11A090A9B013B434509DC14
:1040000023689B0700F10581E0680B9B9842B8BFCD
:10401000184630E701234A4631462846B847013062
:104020003FF427AF08F10108E6E7099B002B39DCD4
:104030001B4A012331462846B84701303FF419AFE7
:10404000DDE90923134302D12368D907D8D518EE37
:10405000103A524631462846B84701303FF409AF7E
:104060004FF0000904F11A0A099B5B424B4501DC41
:104070000A9B92E70123524631462846B847013051
:104080003FF4F7AE09F10109EEE700BFFFFFEF7F54
:1040900010960008149600081C9600081896000850
:1040A000209600080A9AA36D9A42A8BF1A46002AD1
:1040B000914637DC4FF0000B29EAE97904F11A0246
:1040C000A36D0593A3EB09035B4533DCDDE909230D
:1040D0009A423BDB2368DA0738D40A9A059B099990
:1040E000D31AA2EB01099945A8BF9946B9F1000F6F
:1040F00035DC4FF0000829EAE97904F11A0ADDE914
:1041000009239B1AA3EB090343457FF779AF0123EA
:10411000524631462846B84701303FF4AAAE08F16E
:104120000108ECE71346314642462846B8470130BD
:10413000C0D19EE60123314628460592B84701309A
:104140003FF497AE059A0BF1010BB9E718EE103A60
:10415000524631462846B8470130BED189E6059A15
:104160004B46424431462846B8470130C1D180E62B
:104170000A9A012A01DCDB0738D501234246314681
:104180002846B84701303FF474AE18EE103A524654
:1041900031462846B84701303FF46BAED4E91201EE
:1041A00000220023FCF790FCD8B90A9B08F1010219
:1041B000013B31462846B84701300ED159E601236C
:1041C000524631462846B84701303FF452AE08F116
:1041D00001080A9B013B4345F1DC4B4604F15002C8
:1041E000DCE64FF0000804F11A0AF2E70123424628
:1041F000DFE701234A4631462846B84701303FF4FD
:1042000038AE08F10108E3680B995B1A4345F0DC0E
:10421000FAE64FF0000804F11909F4E72DE9F04738
:10422000164699468A680B69DDF820809342B8BF2C
:104230001346336091F8432007460C460AB1013318
:1042400033602368990642BF3368023333602568C0
:1042500015F0060506D104F1190AE36832689B1AC5
:10426000AB4226DC94F84320131E226818BF0123BA
:1042700092062BD404F1430249463846C047013028
:104280001ED02368E568326803F00603042B08BFDC
:10429000AD1AA36822690CBF25EAE5750025934293
:1042A000C4BF9B1AED1800261A34B5421AD100205B
:1042B00008E00123524649463846C047013003D141
:1042C0004FF0FF30BDE8F0870135C6E7E1185A1C12
:1042D000302081F84300224494F8451082F84310BE
:1042E0000233C7E70123224649463846C04701301A
:1042F000E6D00136D9E700002DE9FF470C4691468C
:10430000277E0C99782F80469A4604F1430207D8FD
:10431000622F0AD8002F00F0D880582F00F0A38019
:1043200004F1420684F842703AE0A7F16303152BCA
:10433000F6D801A050F823F091430008A5430008E7
:1043400021430008214300082143000821430008BD
:10435000A543000821430008214300082143000829
:1043600021430008B1440008D543000893440008E5
:104370002143000821430008D344000821430008DA
:10438000D543000821430008214300089B4400084E
:104390000B681A1D1B680A6004F1420684F842305B
:1043A0000123A3E0256808682E0600F104030AD55E
:1043B00005680B60002D03DA2D236D4284F843302D
:1043C0005E480A2319E015F0400F05680B6018BF1E
:1043D0002DB2EFE70B682568181D0860280601D587
:1043E0001D6802E06906FBD51D8854486F2F0CBF7D
:1043F00008230A23002184F843106668A660002E73
:10440000A2BF216821F0040121600DB9002E4DD01A
:104410001646B5FBF3F103FB1157C75D06F8017DA6
:104420002F46BB420D46F4D9082B0BD12368DF077A
:1044300008D5236961689942DEBF302306F8013C44
:1044400006F1FF36921B2261CDF800A04B4603AA6D
:1044500021464046FFF7E2FE01304CD14FF0FF30DD
:1044600004B0BDE8F087354884F8457023680E68CD
:104470001F0656F8045B0E6014D5D90744BF43F0FD
:10448000200323601DB9236823F020032360102339
:10449000B0E7236843F0200323607823284884F89A
:1044A0004530E3E75E0648BFADB2E6E71646BBE738
:1044B0000B68266860691D1D0D6035061B6801D5F7
:1044C000186002E07106FBD51880002323611646B0
:1044D000BAE70B681A1D0A601E6862680021304640
:1044E000FBF77EFE08B1801B6060636823610023D8
:1044F00084F84330A8E72369324649464046D0470E
:104500000130ABD023689B0713D4E068039B98422B
:10451000B8BF1846A4E70123324649464046D04773
:1045200001309BD00135E36803995B1AAB42F2DCA2
:10453000EBE7002504F11906F5E700BF2296000815
:10454000339600082DE9F04F87B0174603938B6828
:104550005A1EB2F5AE7F83BF6FF4AE755B1902933E
:10456000002386BF40F25D138B6002930B688B467D
:10457000002543F4F0634BF81C3BCDE9045580461D
:104580000C465E46AA46A9460195A26852B13B6810
:104590001B784E2B64D8402B3CD8A3F12B01C8B21A
:1045A0000E283AD9B9F1000F03D0236823F48073A1
:1045B00023600AF1FF3ABAF1010F00F213815E4560
:1045C00000F205810125284607B0BDE8F08FA3F170
:1045D00061020D2AE6D801A151F822F01B4700081C
:1045E000A5450008A5450008A54500087B4700082B
:1045F00053470008A5450008A545000829470008BD
:10460000A5450008A5450008A5450008A5450008E2
:10461000E1460008A3F14102DBE70E29C2D801A060
:1046200050F821F0D3460008A5450008D3460008FD
:1046300067470008A545000881460008BD460008F8
:10464000BD460008BD460008BD460008BD4600083E
:10465000BD460008BD460008BD460008BD4600082E
:104660006E2B09D8602BB2D8542B77D0592B99D107
:10467000072D97D1082529E0742B6FD0792BF6E709
:104680002168C8051AD5029B21F08001216009F13B
:1046900001091BB1013B01320293A260A368013BF7
:1046A000A3602369013323617B68013B002B7B609E
:1046B00040F384803B6801333B6066E71AEB050FEB
:1046C0007FF470AF226822F4C072226006F8013BCA
:1046D000E4E7226810067FF565AF22F08002F4E778
:1046E000BAF1000F0ED1B9F1000F0ED1226802F419
:1046F000E061B1F5E06F08D122F4F06222604FF082
:10470000010AE3E7BAF1020F55D0012D02D0042DC2
:104710007FF448AF0135EDB2D8E7BAF1010F7FF46D
:1047200041AF4FF0020AD1E77DB9B9F1000F7FF434
:104730003CAF226802F4E061B1F5E06F7FF439AF7D
:1047400022F4F06222600125C0E7032DE2D0052D9E
:10475000DEE7022D7FF426AF0325B7E7062D7FF4B1
:1047600021AF0725B2E7226891057FF51BAF22F440
:1047700020722260CDF80490A8E7226802F4A061BC
:10478000B1F5806F06D050057FF50CAFB9F1000F81
:104790003FF40FAF910558BF019922F4F06258BF62
:1047A000A9EB010142F4C07258BFCDE904162260A2
:1047B0004FF000098AE74FF0030A87E7D4F8803109
:1047C00039464046984700283FF4DFAEEAE6D4F881
:1047D0007C3116F8011D3A46404698472369013B53
:1047E0002361ECE66B1E062B25D8022D36D85E45DC
:1047F0007FF6E8AED4F87C3116F8011D3A46404603
:1048000098472369013B2361F1E70298D4F87C3192
:1048100010F8011D02903A46404698472369013B33
:1048200023610AF1FF3A5FFA8AFABAF1020FECD17A
:10483000033DEDB2761B2368DA052FD55B0510D555
:104840005E457FF6BFAED4F87C3116F8011D3A46BE
:10485000404698472369013B2361F1E7AA46029647
:10486000DFE716F8011C2369652903F1FF3306F120
:10487000FF3523610CD045290AD0D4F87C313A4663
:1048800040469847236916F8021C013BB51E236178
:10489000D4F87C313A46404698472E46256815F0B4
:1048A000100558D13570236803F4C063B3F5806FE9
:1048B0001CD1019B4B45A3EB090224D10022594690
:1048C000404600F0F3FE039B21681B6811F0020FC5
:1048D00057EC106B03F1040220D003990A601B68A7
:1048E000C3E90067E3680133E3606CE6049B002BD7
:1048F000E4D005990A232A460131404600F060FFC2
:10490000049B059EC21A04F26F139E4228BF04F551
:10491000B7761249304600F083F8CFE711F0040F64
:1049200003990A60DBD1D3F8008010EE102A10EE54
:10493000100A3B463946FCF7F9F828B1084800F060
:1049400069F888ED000ACDE730463946FCF74CF9A6
:10495000C8F80000C6E7002535E600BF4496000809
:104960004B9700080FB40A4B13B51C6824B1A36918
:1049700013B9204601F014FE05AB049AA168019317
:10498000204603F055F902B0BDE8104004B070476E
:1049900030000020174B10B51C68A36BB3B918206A
:1049A00002F024FAA06328B90246134B13484E21A3
:1049B00000F008FF124A134BC0E90023124B83603A
:1049C0000B23838101220023C0E90423A16B0F483C
:1049D0000A694B690E4C504304FB0300A2FB0434EC
:1049E0005A1C044444F10000C1E9042020F00040B6
:1049F00010BD00BF300000204996000860960008F6
:104A00000E33CDAB34126DE6ECDE05002DF45158BB
:104A10002D7F954C9FED010A704700BF0000C07FBD
:104A20000EB400B59CB01DAB029006906FF0004133
:104A3000094807910491094953F8042B059100682E
:104A4000019302A902F0CAFF029B00221A701CB057
:104A50005DF804EB03B07047300000200802FFFF50
:104A600070B504460D4645EC104B164602F052FD5B
:104A700051EC100B7EB1C5F30A53C3F16B03002B4D
:104A800009DD1B0503F17F55002405F5401522467D
:104A90002B46FBF7B1FD70BD2DE9F04FA3B01F46CB
:104AA00000231E93A44B19921B68079304461846D3
:104AB0008846FBF78DFB4FF0000A05464FF0000BD0
:104AC000CDF874801D9B1A782B2A4CD039D80D2A2A
:104AD00032D8082A32D8002A3CD000230E931D9EDB
:104AE0003378302B40F0B480737803F0DF03582B19
:104AF0006CD10E9B01931EAB029700938F4A1FABA4
:104B00001DA9204601F062FE10F00707054605D0FA
:104B1000062F2AD1013600231D960E93199B002BD8
:104B200040F096850E9BDBB152460BF1004343ECFF
:104B3000102B23B0BDE8F08F202ACED101331D9376
:104B4000C0E72D2AC9D101220E925A1C1D925B7812
:104B5000002BC4D1199BCDF87480002B40F07685D2
:104B600052465B46E3E70022EEE71E9A3AB1352152
:104B700020A802F0DAFD1E99204602F09FF9013FBD
:104B8000052F07D8DFE807F00E0B181D0E034FF0B6
:104B9000000BDA462807C1D54BF0004BBEE7DDE934
:104BA00020ABF7E7DDE920A31F9A23F4801302F27C
:104BB000334243EA025BEDE7DFF884B14FF0000ACD
:104BC000E8E76FF0004B4FF0FF3AE3E71D9B5A1CFC
:104BD0001D925B78302BF9D0002B9FD001234FF032
:104BE000000904931D9B0A93CDF824904F460A2296
:104BF0001D980678A6F13003D9B209292AD9079958
:104C00002A4603F0A0F998B3002033463D460790AA
:104C10000246652B01D0452B18D11DB9049B0343D7
:104C200098D00025DDF8748008F101031D9398F8F1
:104C300001302B2B75D02D2B7BD04FF0000CA3F126
:104C40003001092940F28280CDF8748000269DE071
:104C50000023C4E7082FD8BF099900F10100DABF8B
:104C600002FB0133099302FB093901371D90BFE7AD
:104C70001D9B5A191D925B5D002F37D007903D4652
:104C8000A3F13002092A12D90122C2E71D9B5A1C46
:104C90001D925B780130302BF8D0A3F13102082A45
:104CA00000F2DB841D9A079000200A920546303BF3
:104CB00000F1010214D00799114407912A4600EB34
:104CC000050E0A21724513D12A18082A05F101059B
:104CD00005441CDC09990A2202FB013309930022D6
:104CE0001D9B591C1D915B781046C9E73846D2E7D9
:104CF000082A04DC099E4E4309960132E2E702F1DC
:104D0000010CBCF1100FD8BF01FB09F9F5E7102D1C
:104D1000DCBF0A2202FB0939E1E7002307930122E5
:104D20007CE74FF0000C08F102031D9398F8023065
:104D300085E74FF0010CF6E798990008C096000847
:104D40000000F07F1D9B591C1D915B78302BF9D022
:104D5000A3F1310108293FF679AFA3F1300E1D9B75
:104D600008931D9B591C1D915B78A3F13006092EF9
:104D700037D9089E891B082944F61F6602DC764550
:104D8000A8BF7646BCF1000F00D07642002D4FD16F
:104D9000049901437FF4C2AE002A7FF4DBAE692B95
:104DA00027D024DC492B24D04E2B7FF4D3AE9E4950
:104DB0001DA801F063FF00283FF4CCAE1D9B1B78BB
:104DC000282B2DD1994920AA1DA801F06BFF052899
:104DD00026D1219BDDF880A043F0FF4B4BF4E00B84
:104DE0009CE60A2101FB0E3EAEF1300EB9E76E2BB8
:104DF000DBE78F491DA801F041FF00283FF4AAAE70
:104E00001D9B8C49013B1DA81D9301F037FF10B974
:104E10001D9B01331D93DFF82CB24FF0000A7DE695
:104E2000854803F035F88DED040BDDE904AB75E63C
:104E3000079B0998F31A002F08BF2F46102D0893DF
:104E4000A846A8BF4FF01008FBF75CFB092D82466F
:104E50008B4613DD794B03EBC80353E91223FBF7B1
:104E6000CBFB824648468B46FBF74CFB02460B4683
:104E700050465946FBF70AFA82468B460F2D38DC1E
:104E8000089B002B3FF44AAE24DD162B0BDC6B4D48
:104E900005EBC305D5E9000152465B46FBF7ACFBC9
:104EA00082468B463AE6089AC5F12503934220DBF9
:104EB000624CC5F10F0504EBC50152465B46D1E9D2
:104EC0000001FBF799FB089B5D1B04EBC504D4E9CB
:104ED0000023E3E7089B16330BDB079B574A9E1B17
:104EE00002EBC606D6E9002350465946FBF7AEFC56
:104EF000D6E7089BA5EB08089844B8F1000F71DDD0
:104F000018F00F030AD04D4901EBC30152465B462E
:104F1000D1E90001FBF770FB82468B4638F00F08A1
:104F20004DD0B8F59A7F22DD00252E4609950795CC
:104F30002223DFF810B123604FF0000A099B002BF9
:104F40003FF4ECAD1E99204601F0B8FF07992046CA
:104F500001F0B4FF3146204601F0B0FF0999204628
:104F600001F0ACFF2946204601F0A8FFD6E500235A
:104F70004FEA2818504659469946B8F1010F21DCEE
:104F80000BB182468B462E4BABF1547B03EBC90928
:104F900052465B46D9E90001FBF72EFB294B0A4636
:104FA0000B4029498B428246BED8A1F580118B4225
:104FB00086BFDFF898B04FF0FF3A02F1547B002330
:104FC000049381E018F0010F07D01D4B03EBC903D8
:104FD000D3E90023FBF710FB012309F101094FEA94
:104FE0006808CAE7EBD0C8F1000818F00F020AD031
:104FF000124B03EBC20350465946D3E90023FBF79B
:1050000025FC82468B465FEA2818D8D0B8F11F0FDE
:105010001EDD00252E460995079522234FF0000A34
:105020004FF0000B236089E71D960008D496000816
:1050300015960008509800084B970008389A000809
:10504000109A00080000F07F0000A07CFFFFEF7FB7
:1050500018F0100318BF6A23DFF8B4930493504686
:105060005946002318F0010F04D0D9E90023FBF7BB
:10507000C3FA01235FEA680809F10809F2D10BB10C
:1050800082468B46049BBBB1CBF30A53C3F16B033F
:10509000002B594610DD1F2B40F32881342BDEBF37
:1050A000203B4FF0FF3202FA03F34FF0000ACCBF6F
:1050B0004FF05C7B03EA010B002200235046594667
:1050C000FBF702FD0028A4D1099B00930A992B4607
:1050D0003A46204601F05EFF099000283FF424AFD5
:1050E000079B9E1B089B002BB4BF334600231093E5
:1050F000089B002523EAE37318932E46099B20465C
:10510000596801F09BFE079000283FF411AF099BFE
:105110001A69023203F10C0192000C3001F080FE9A
:105120004BEC10AB20AA1FA92046CDE90AAB02F038
:105130006DFA1E9000283FF4FBAE0121204601F0DD
:10514000C3FF064600283FF4F3AE1F9B0499002BD3
:10515000ABBF109A189A189FDDF84090ACBF03EBD4
:105160000209D71A209AA3EB01089044A34B08F137
:10517000FF389845C2F1360280F2CC80A3EB0803D9
:105180001F2BA2EB03024FF0010100F3B68001FADE
:1051900003F3119300230C9309EB0208049BC14510
:1051A00017441F444B46A8BF4346BB42A8BF3B46DB
:1051B000002BC2BFA8EB0308FF1AA9EB0309109B41
:1051C000002B17DD31461A46204602F039F8064614
:1051D00000283FF4ADAE01461E9A204601F08AFF3A
:1051E0000F9000283FF4A4AE1E99204601F066FE01
:1051F0000F9B1E93B8F1000F00F39180089B002BCA
:1052000008DD189A0799204602F01AF8079000283E
:105210003FF48EAE002F08DD07993A46204602F093
:1052200069F8079000283FF483AEB9F1000F08DD5C
:1052300031464A46204602F05DF8064600283FF413
:1052400077AE079A1E99204602F0DCF80546002842
:105250003FF46EAEC3680F930023C360314602F083
:10526000B5F8002865DA0F9B53EA0A0340F08780FF
:10527000CBF31303002B40F082802BF000431B0D77
:105280001B05B3F1D66F7AD96B6913B92B69012B62
:1052900075DD29460122204602F02CF831460546EC
:1052A00002F094F800286ADD0499554A5B4600290B
:1052B00000F0858002EA0B01B1F1D66F7FDCB1F11D
:1052C0005C7F7FF7AAAE4F4A0023CDE916325046E5
:1052D000DDE916235946FBF78FF90B46034308BF58
:1052E000222382468B4608BF23602BE64FF0FF3215
:1052F00002FA03F303EA0A0ADEE6C8F17F4808F57A
:105300007F0808F57B4808F1E20801FA08F30C93DE
:10531000119141E700230C93012311933CE71E995F
:105320004246204601F0E6FF1E9000287FF466AF5B
:10533000FEE55F466ED10F9ACBF3130342B3324AB8
:10534000934228D1049B5046EBB12D4A3A40B2F12A
:10535000D46F4FF0FF3119D8120DC2F16B0301FA6F
:1053600003F3984217D1294B9F4202D101303FF4F9
:10537000DFAD234B3B4003F5801B4FF0000A049B3D
:10538000002BA0D1DEE54FF0FF33EAE70B46E8E75C
:1053900053EA0A0388D00C9BDBB13B42EFD00F9B52
:1053A000049A50465946C3B1FFF75AFB02460B46D2
:1053B000DDE90A01FAF76AFF82468B46DFE7134010
:1053C000A3F580136FEA135B6FEA0B5B4FF0FF3AB4
:1053D000D5E7119B13EA0A0FE0E7FFF741FB02460E
:1053E0000B46DDE90A01FAF74FFF0022002382464F
:1053F0008B46FBF769FB0028C1D00EE602FCFFFFDD
:105400000000F07F00005039FFFF0F00FFFFEF7F2B
:10541000E89600083146284602F054F959EC108B02
:1054200010EE100A00224FF080434946FBF760FB64
:1054300000287CD00F9B002B4CD0954B0022CDE94F
:105440000C23DFF84C924FF00008924B3B40119335
:10545000119A914B9A4240F0B280DDE90A23DDE9CE
:105460000C01A7F1547B4BEC10ABCDE91623CDE931
:105470000C0102F04FF8DDE90C0153EC102BFBF7A7
:10548000BBF852465B46FAF701FF0B468149834A57
:105490001940914282465ED90B9B02F154729342AD
:1054A00003D10A9B01333FF443ADDFF8FCB14FF069
:1054B000FF3A1E99204601F001FD0799204601F0B0
:1054C000FDFC3146204601F0F9FC2946204601F05A
:1054D000F5FC13E6BAF1000F1BD1CBF31303F3B9BC
:1054E0006B4B002240464946FBF7F8FAD0B94046DC
:1054F00049466B4B0022FBF77FF88046894609F14D
:105500000043CDF868801B93DDE91A23CDE90C2315
:105510009BE7BAF1010F02D1002F3FF47EAD614B42
:1055200000228CE7DFF878914FF00008E7E75C4B4A
:10553000404649460022FBF75FF80F9B80468946AC
:1055400033B901F1004312901393DDE91223DDE733
:10555000CDE91289F9E703F1547B049B002BA8D114
:105560002BF00043119A1B0D1B059A42A1D1404616
:105570004946FBF7A1FBFBF711F802460B464046F4
:105580004946FAF781FE0F9ACBF3130343EA0A0365
:1055900013438046894653D035A3D3E90023FBF754
:1055A0009DFA00287FF4CEAC33A3D3E90023404614
:1055B0004946FBF7B1FA00283FF47BAFC2E4049BF5
:1055C00033B3119BB3F1D46F22D82DA3D3E90023B9
:1055D00040464946FBF78CFAA0B149464046FBF7E6
:1055E000E3FA012838BF0120FAF78CFF0F9B8046B1
:1055F000894613BB01F1004314901593DDE9142390
:10560000CDE90C230D9B119A03F1D6639B1A0D93E0
:10561000DDE90C019DED0A0BCDE90C0101F07AFFEB
:10562000DDE90C0153EC102BFAF7E6FFDDE90A2364
:10563000FAF72CFE82468B468FE7CDE91489DDE729
:1056400011A3D3E90023FBF749FAB4E700230E9333
:10565000199A1D9B1360FFF765BA652B3FF45DAB8C
:10566000452B3FF45AAB0122FFF792BBAFF300800A
:105670009535A094FFFFDF3F35E5AF350000E03FF3
:105680000000C0FFFFFFDF419535A094FFFFCF3F33
:105690000000F03F0000F07F0000E07FFFFF9F7CF4
:1056A0000000E03F0000F0BFFFFFEF7F014BFFF77E
:1056B000F3B900BF98000020012B2DE9F04701D07D
:1056C000242B06D9FEF7A2FA162303600020BDE8BA
:1056D000F0873A4F8E4676461EF8014BE55D15F091
:1056E0000805F8D12D2C34D19EF800404FF0010868
:1056F00006F1020E002B5CD0102B0CD1302C0AD1FD
:105700009EF8004004F0DF04582C4DD19EF8014073
:1057100010230EF1020E08F1004C0CF1FF3C0026A4
:10572000BCFBF3F9354603FB19CAA4F13007092F76
:1057300018D83C46A34224DD002E1FDBA9451DD30B
:1057400001D1A2451ADB05FB034501261EF8014BDA
:10575000EBE72B2C08BF9EF80040A84608BF06F1D7
:10576000020EC7E7A4F14107192F01D8373CE1E742
:10577000A4F16107192F04D8573CDBE74FF0FF363F
:10578000E4E7002E05DA22230360654642B9284685
:105790009DE7B8F1000F00D06D42002AF7D00EB19E
:1057A0000EF1FF311160F2E73024002BB3D1082352
:1057B000B1E7302CA4D00A23ADE700BF4D97000815
:1057C000FFF77ABF1FB514461A46094B1B680546FA
:1057D000D8684CB1074B0091CDE9013406492B46FE
:1057E00000F05CFF02F0A2FC044B1C46F3E700BF94
:1057F00030000020109700081D9700084B97000804
:105800002DE9F74F03690C69A3420746C0F2818076
:10581000013C01F1140800F1140505EB8403019328
:1058200058F8243055F8242001339A424FEA840B6B
:1058300008EB8409B2FBF3F631D34FF0000E40467B
:10584000AC46F24650F8042B93B206FB03E34FEA52
:10585000134E9BB2AAEB0303120CDCF800A006FB6C
:1058600002E213FA8AF34FEA124E1FFA82FADCF8C8
:105870000020CAEB124202EB23429BB243EA0243EE
:1058800081454CF8043B4FEA224ADBD255F80B30F5
:105890002BB9019B043B9D421A462ED33C613846EE
:1058A00001F094FD002824DB013628464FF0000C5F
:1058B00058F8042BD0F800E093B2ACEB0303120CC1
:1058C00013FA8EF3C2EB1E4202EB23429BB243EA71
:1058D0000243C14540F8043B4FEA224CE8D255F858
:1058E000242005EB840322B9043B9D421A460AD3C7
:1058F0003C61304603B0BDE8F08F1268043B002ADB
:10590000CCD1013CC7E71268043B002AF0D1013C2E
:10591000EBE70020EEE700002DE9F04F2DED028BC4
:1059200057EC106B95B0456ADDF880800591CDE9A4
:105930000267044609920F9375B9102001F056FAD8
:105940000246606220B9B24BEA21B248FFF73AFF43
:10595000C0E901550560C560636A196851B15A68AC
:105960004A60012393408B60204601F0A7FA636AE6
:1059700000221A603B1EB9BF23F0004303930023AB
:10598000C8F80030DDF80C90A34BBCBF0122C8F86A
:10599000002033EA09031BD10F9A42F20F73136000
:1059A000C9F31303334300F07A85219B63B99B4B02
:1059B00024E09B4B00930833219A1360009815B0A4
:1059C000BDEC028BBDE8F08F944B00930333F3E7FB
:1059D0009DED027B002251EC170B00238DED0A7B1D
:1059E000FBF772F8804658B10F9A01231360219B90
:1059F000002B00F051858B481860431E0093DDE7B3
:105A00009DED0A0B12AA13A9204601F0FFFDC9F370
:105A10000A558346002D7CD00B9BCDF84080C3F304
:105A20001303DDE90A6743F07F5747F44017A5F2F7
:105A3000FF357D4B002230463946FAF725FC6EA330
:105A4000D3E90023FAF7D8FD6DA3D3E90023FAF7D1
:105A50001DFC064628460F46FAF764FD6AA3D3E903
:105A60000023FAF7C9FD02460B4630463946FAF7DD
:105A70000DFC06460F46FBF76FF800228246002316
:105A800030463946FBF72AF848B15046FAF74AFD46
:105A900032463B46FBF718F808B90AF1FF3ABAF16B
:105AA000160F54D8614B03EBCA03D3E90023DDE999
:105AB0000A01FBF713F800284BD00AF1FF3A002344
:105AC0000E93129B5D1B6B1E049343BF0023C5F115
:105AD000010804934FF00008BAF1000F3BDB049B70
